:020000040800F2
:10000000400C0020450100083D1000083F1000088A
:1000100043100008471000084B10000800000000C3
:100020000000000000000000000000004F10000869
:10003000511000080000000053100008551000087F
:100040005F0100085F0100085F0100085F01000810
:100050005F0100085F0100085F0100085F01000800
:100060005F0100085F0100085F0100085F010008F0
:100070005F0100085F0100085F0100085F010008E0
:100080005F0100085F0100085F0100085F010008D0
:100090005F0100085F0100085F0100085F010008C0
:1000A0005F0100085F0100085F0100085F010008B0
:1000B0005F0100085F0100085F0100085F010008A0
:1000C0005F0100085F0100085F0100085F01000890
:1000D0005F0100085F0100085F0100085D10000873
:1000E0005F0100085F0100085F0100085F01000870
:1000F0005F0100085F0100085F0100085F01000860
:100100005F0100085F0100085F0100085F0100084F
:100110005F0100085F0100085F0100085F0100083F
:100120005F0100085F0100085F0100085F0100082F
:10013000DFF80CD001F0CEFF004800472D0F00087B
:10014000400C00200648804706480047FEE7FEE7CF
:10015000FEE7FEE7FEE7FEE7FEE7FEE7FEE7FEE777
:1001600047020008310100080CB500200190009002
:100170006C48006840F480306A49086000BF6948F4
:10018000006800F4003000900198401C0190009835
:1001900018B90198B0F5A06FF1D16248006800F479
:1001A000003010B10120009001E000200090009884
:1001B000012843D15C48006840F010005A490860AB
:1001C0000846006820F0030008600846006840F018
:1001D0000200086053484068524948600846406839
:1001E00048600846406840F48060486008464068BF
:1001F00020F47C1048600846406840F4E8104860ED
:100200000846006840F08070086000BF45480068FC
:1002100000F000700028F9D04248406820F0030048
:10022000404948600846406840F00200486000BF0E
:100230003C48406800F00C000828F9D10CBD10B50E
:10024000FFF792FF10BD10B53648006840F001007E
:1002500034490860084640683449084031494860DC
:1002600008460068324908402E4908600846006880
:1002700020F4802008600846406820F4FE004860B2
:100280004FF41F008860FFF7DAFF4FF00060294944
:10029000086010BD10B5002100200022214B5B68D2
:1002A00003F00C0121B1042906D0082928D107E068
:1002B000214B224C236027E01F4B204C236023E07E
:1002C000184B5B6803F47010164B5B6803F48032C4
:1002D000022303EB904022B9194B4343174C236090
:1002E0000DE0104B5B6803F4003323B1144B434320
:1002F000124C236003E0104B4343104C236003E097
:100300000D4B0E4C236000BF00BF064B5B68C3F370
:1003100003130C4CE15C094B1B68CB40074C23607A
:1003200010BD000000100240002002400000FFF855
:10033000FFFFF6FE08ED00E000127A00000000204A
:1003400000093D000400002031490143314A116099
:10035000704770B5002100230F22C47804B32D4CE0
:10036000246804F4E064C4F5E064210AC1F10403E4
:10037000CA40447804FA03F1847814402143090107
:10038000254C0678A155047804F01F050124AC40E3
:1003900005786D11AD0005F1E025C5F8004109E0D3
:1003A000047804F01F050124AC401C4D067876113A
:1003B00045F8264070BD1A4A0A400243154B1B1FE0
:1003C0001A60704739B1134A121D12680243114B6B
:1003D0001B1D1A6006E00F4A121D126882430D4B66
:1003E0001B1D1A607047042808D14FF0E0210969ED
:1003F00041F004014FF0E022116107E04FF0E021ED
:10040000096921F004014FF0E022116170470000FA
:100410000000FA050CED00E000E400E080E100E0FF
:1004200080FFFF1F10B50446CC48844208D101214B
:10043000042000F02DFB0021042000F029FB46E001
:10044000C748844208D10121082000F021FB002187
:10045000082000F01DFB3AE0C248844208D1012187
:10046000102000F015FB0021102000F011FB2EE001
:10047000BD48844208D10121202000F009FB002161
:10048000202000F005FB22E0B848844208D1012179
:10049000402000F0FDFA0021402000F0F9FA16E0BB
:1004A000B348844208D10121802000F0F1FA0021F4
:1004B000802000F0EDFA0AE0AE48844207D1012125
:1004C000801500F0E5FA0021A01500F0E1FA10BD5A
:1004D00010B50121084600F0DBFA0021012000F0F0
:1004E000D7FA10BD2DE9F041024600250026002074
:1004F00000230024002791F803C00CF00F0591F8A9
:1005000003C00CF0100CBCF1000F03D091F802C036
:100510004CEA050591F800C0BCF1000F31D0146819
:1005200000202BE04FF0010C0CFA00F3B1F800C0F2
:100530000CEA03069E4220D183004FF00F0C0CFA08
:1005400003F7BC4305FA03FC4CEA040491F803C02A
:10055000BCF1280F06D14FF0010C0CFA00FCC2F8D8
:1005600014C00AE091F803C0BCF1480F05D14FF068
:10057000010C0CFA00FCC2F810C0401C0828D1D3B2
:100580001460B1F800C0BCF1FF0F34DD54680020E6
:100590002EE000F1080C4FF0010808FA0CF3B1F856
:1005A00000C00CEA03069E4221D183004FF00F0CDD
:1005B0000CFA03F7BC4305FA03FC4CEA040491F877
:1005C00003C0BCF1280F05D100F1080C08FA0CF8A3
:1005D000C2F8148091F803C0BCF1480F07D100F1B4
:1005E000080C4FF0010808FA0CF8C2F81080401C03
:1005F0000828CED35460BDE8F0814FF6FF7101802A
:10060000022181700421C170704702460020936866
:100610000B400BB1012000E00020704701468868C4
:1006200080B2704702460020D3680B400BB1012016
:1006300000E0002070470146C86880B27047016141
:100640007047416170470AB1016100E04161704744
:10065000C16070474FF480320A43826181618261D8
:1006600082698269704702460020434B18684FF642
:100670008073184040EA021008433F4B18607047EF
:100680003E49C8617047F0B50A46002300240021A6
:10069000002500F00046B6F1004F02D1364EF16958
:1006A00001E0354E7168C0F3034583B200F4401693
:1006B000B6F5401F08D121F070612F4E766826F004
:1006C00070662D4F7E6012E000F48016B6F5801F34
:1006D00006D1032606FA05F4A14341F0706106E055
:1006E000460D360103FA06F6B14341F0706122B1BE
:1006F000460D360103FA06F6314300F00046B6F126
:10070000004F02D11C4EF16101E01B4E7160F0BD43
:1007100030B500228B071C0F0F2303FA04F2164B8F
:1007200008338C1053F824309343134C08348D1045
:1007300044F8253023468C1053F824308C07240FBE
:1007400000FA04F423430C4C08348D1044F825308F
:1007500030BD0A49DC3108607047000000080140E4
:10076000000C01400010014000140140001801403D
:10077000001C014000200140000001400000204218
:10078000DF48006840F00100DD4908600846406825
:10079000DC490840DA49486008460068DA49084000
:1007A000D74908600846006820F4802008600846A1
:1007B000406820F4FE0048604FF41F0088607047D6
:1007C000CF49096821F48031CD4A1160114609688A
:1007D00021F480211160B0F5803F03D0B0F5802F67
:1007E0000ED106E0C649096841F48031C44A11605F
:1007F00007E0C349096841F4A021C14A116000E043
:1008000000BF00BF704710B5014600220023002042
:100810004A11012A02D1BA4C236806E0022A02D109
:10082000B74C236A01E0B64C636A01F01F02012451
:1008300094401C400CB1012000E0002010BD38B5F0
:10084000002000900024002500BF3120FFF7DBFFCF
:1008500005460098401C00900098B0F5A06F01D0AC
:10086000002DF2D03120FFF7CEFF08B1012400E0C7
:100870000024204638BD01460020A14A106820F01F
:10088000F80040EAC10010607047A0490860704756
:10089000024600209A4B586820F47C1042EA01037B
:1008A0001843974B5860704798490866704701464F
:1008B0000020934A506820F00300084350607047BE
:1008C0008F48406800F00C007047014600208C4AB9
:1008D000506820F0F0000843506070470146002047
:1008E000874A506820F4E060084350607047014632
:1008F0000020834A506820F4605040EAC1005060F4
:10090000704729B17E4A527A02437D4B5A7204E005
:100910007B4A527A82437A4B5A7270477B49D8316C
:100920000860704701460020754A506820F4404036
:100930000843506070470021714A20321170704A9C
:1009400082F82010012802D004280AD104E00121F5
:100950006B4A2032117005E00521694A203211707E
:1009600000E000BF00BF70476949086070476449F4
:10097000096A0143624A1162704765494439086057
:10098000704730B500210022002400235C4D6D68C3
:1009900005F00C0121B1042905D0082923D105E077
:1009A0005C4D056022E05B4D05601FE0544D6D68B5
:1009B00005F47012524D6D6805F48034022505EB84
:1009C00092421CB9544D554305600BE04C4D6D6887
:1009D00005F400351DB1504D5543056002E04D4D05
:1009E0005543056002E04B4D056000BF00BF444D1C
:1009F0006D6805F0F0010909484D6B5C0568DD4044
:100A000045603F4D6D6805F4E061090A434D6B5C3C
:100A10004568DD4085603A4D6D6805F46051C90A4E
:100A20003E4D6B5C4568DD40C560354D6D6805F435
:100A30004041890B3A4D6B5CC568B5FBF3F5056128
:100A400030BD29B12E4A526902432D4B5A6104E050
:100A50002B4A526982432A4B5A61704729B1284A6E
:100A600092690243264B9A6104E0254A92698243C7
:100A7000234B9A61704729B1214AD2690243204B26
:100A8000DA6104E01E4AD26982431D4BDA61704785
:100A900029B11B4AD2680243194BDA6004E0184AB4
:100AA000D2688243164BDA60704729B1144A126942
:100AB0000243134B1A6104E0114A12698243104B3E
:100AC0001A61704712494039086070470F49C8647D
:100AD00070470B49C87170470948406A40F0807000
:100AE00007494862704701460020054A92680A405B
:100AF0000AB1012000E00020704701498872704768
:100B0000001002400000FFF8FFFFF6FE0000424226
:100B10008004424200127A0000093D0014000020C7
:100B20002400002010B50446FB48844209D101216D
:100B30008803FFF7ADFF00214FF48040FFF7A8FFC7
:100B400032E0F648844209D101214804FFF7ADFFA5
:100B500000214FF40030FFF7A8FF25E0F048844261
:100B600009D101218804FFF7A0FF00214FF4802064
:100B7000FFF79BFF18E0EB48844209D10121C8042C
:100B8000FFF793FF00214FF40020FFF78EFF0BE0EB
:100B9000E548844208D101210805FFF786FF0021BE
:100BA0004FF48010FFF781FF10BD2DE9F04786B0AC
:100BB00005460E460024A24600BFA1460027B08984
:100BC00000B100BF2F462C8A4CF6FF700440F0881D
:100BD00004432C82AC894EF6F3100440B08831896E
:100BE0000843718908430443AC81AC8A4FF6FF4047
:100BF0000440B0890443AC8201A8FFF7C2FEC64896
:100C0000874202D1DDF810A001E0DDF80CA0A88930
:100C100000F4004040B10AEBCA0000EB0A10316852
:100C20004900B0FBF1F807E00AEBCA0000EB0A103C
:100C300031688900B0FBF1F86420B8FBF0F00401E2
:100C40002009642101FB1089A88900F4004040B10B
:100C5000322000EBC900B0FBF1F000F007000443C4
:100C600008E0322000EB09106421B0FBF1F000F045
:100C70000F0004432C8106B0BDE8F0874FF41651F5
:100C8000016000218180C18001810C21418100210E
:100C90008181704710B502460020108A4FF2FF0391
:100CA00018400B884C8823438C882343CC882343EB
:100CB0001843108210BD0021018041808180C180D5
:100CC000704721B1828942F40052828104E0828916
:100CD0004DF6FF731A4082817047F0B50346002439
:100CE00000260025002040F66A17B94200D100BF57
:100CF0001846C1F3421401F01F06012707FA06F552
:100D0000012C01D10C3004E0022C01D1103000E0A4
:100D100014301AB107682F43076002E00768AF4339
:100D20000760F0BD1AB1838A0B43838202E0838A95
:100D30008B4383827047028A4FF6F0731A40028217
:100D4000028A0A430282704782894FF2FF731A4077
:100D5000828182890A438281704721B1828942F06F
:100D60000202828104E082894FF6FD731A4082817B
:100D70007047028A4FF6DF731A400282028A0A43E2
:100D80000282704721B1028A42F48042028204E06A
:100D9000028A4BF6FF731A4002827047C1F30802C1
:100DA0008280704701468888C0F3080070478189B7
:100DB00041F0010181817047028BD2B20283028B24
:100DC00042EA012202837047028B02F47F420283CF
:100DD000028B0A430283704721B1828A42F02002CB
:100DE000828204E0828A4FF6DF731A408282704763
:100DF00021B1828A42F01002828204E0828A4FF698
:100E0000EF731A408282704721B1828A42F0080251
:100E1000828204E0828A4FF6F7731A40828270471A
:100E200021B1828942F40042828103E08289C2F3C7
:100E30000E028281704721B1828A42F4006282826E
:100E400004E0828A4FF2FF731A4082827047828ADE
:100E50004FF6FB731A408282828A0A43828270476D
:100E600021B1828A42F00202828204E0828A4FF635
:100E7000FD731A408282704702460020B1F5007F60
:100E800000D100BF13880B400BB1012000E000200F
:100E9000704701F40072B2F5007F00D100BFCA4371
:100EA0000280704770B50246002400230025002010
:100EB00040F66A16B14200D100BFC1F3421501F0FD
:100EC0001F03012606FA03F3012D02D19689334050
:100ED00006E0022D02D1168A334001E0968A3340A3
:100EE0000C12012606FA04F41688344013B10CB132
:100EF000012000E0002070BD10B50022002340F664
:100F00006A14A14200D100BF0A1201249440A3B286
:100F1000DC43048010BD0000003801400044004064
:100F200000480040004C00400050004008B500F070
:100F3000E5F800F041F900F0ACF900F0DBFF2DE03E
:100F4000174800F06EF9174800F0F3F9012822D194
:100F50001448C0780090134883784278017812A032
:100F600001F0CAF80F4882781EA11F4801F0D4F89A
:100F70001D4B1EA21FA127A000F0C8FE0948027841
:100F800018A1194801F0C8F8174B25A219A121A0F2
:100F900000F0BCFE02E024A001F0AEF8D0E70000B3
:100FA00020A10700280000200D0AB6C1C8A14448AE
:100FB000543131B3C9B9A6210D0A0D0ACAAAB6C85F
:100FC000CEAA25642E2564202525524820A3ACCE28
:100FD000C2B6C8CEAA2025642E2564A1E6200D0A3B
:100FE00000000000253264003C00002074656D7034
:100FF0000000000061753D507A5A6F4956716E4687
:101000006A4E43357477596A623D73644D34513D7D
:1010100000000000353930373739383538000000E6
:1010200068756D6900000000526561642044485491
:101030003131204552524F52210D0A00704700BFF6
:10104000FEE700BFFEE700BFFEE700BFFEE7704718
:101050007047704710B500F0F6F810BD10B540F2BB
:1010600025512048FFF71EFFD8B11E48FFF79AFE12
:10107000C4B21D48B0F80004C0F30E0040F2FF31C6
:1010800088420EDA1849B1F80014C1F30E00411C71
:10109000154AB2F8002461F30E021349A1F80024A6
:1010A0000C5440F224410F48FFF7FCFE012817D1F1
:1010B0000D48B0F8000420F4004000F500400A4953
:1010C000A1F800040748FFF76DFEC4B207A1064867
:1010D00000F0AEFF08B1012000E0002006490870D2
:1010E00010BD0000004800403C040020434C4F531A
:1010F00045440D0A000000002D00002000B585B019
:1011000001218803FFF7AAFC01210420FFF7A6FCB8
:101110004FF40070ADF8100018208DF81300032074
:101120008DF8120004A92248FFF7DCF94FF4806023
:10113000ADF8100004208DF8130004A91C48FFF737
:10114000D1F94FF4E13000900020ADF80400ADF883
:101150000600ADF80800ADF80C000C20ADF80A0050
:1011600069461448FFF721FD01211248FFF7A9FD48
:1011700005B000BD70B504460D46E1B20D48FFF75D
:101180000DFE00BF80210B48FFF776FE0028F9D046
:10119000204670BD10B5044600BF20210548FFF76A
:1011A0006BFE0028F9D00348FFF7FCFD10BD0000DE
:1011B000000801400038014030B527480068274A40
:1011C000B0FBF2F1B1F1807F01D301201DE021F0ED
:1011D0007F40401E4FF0E022506150170F22002840
:1011E00007DA13071D0E1E4B00F00F04241F1D55B8
:1011F00003E013071C0E1B4B1C5400BF00204FF0D4
:10120000E022906107201061002008B100BFFEE7D6
:101210004FF0E020006920F001004FF0E02108616C
:1012200030BD01B51049009808604FF0E02000691A
:1012300040F001004FF0E021086100BF0A4800685B
:101240000028FBD108BD0848006820B106480068A6
:10125000401E0549086070470000002040420F0012
:1012600018ED00E000E400E03000002008B50121A6
:101270004020FFF7F3FB4020ADF8000010208DF870
:10128000030003208DF8020069465148FFF72AF950
:1012900008BD10B5FFF7EAFF40214D48FFF7CFF931
:1012A00010BD08B54020ADF8000048208DF80300BF
:1012B00069464748FFF716F908BD08B54020ADF864
:1012C000000010208DF8030003208DF8020069460D
:1012D0003F48FFF707F908BD70B50025002424E05A
:1012E00000BF40213A48FFF790F90028F9D02820A4
:1012F000FFF797FF40213648FFF787F901280DD106
:1013000000BF40213248FFF780F90128F9D0C4F12D
:10131000070101208840C0B2054304E0C4F1070181
:10132000012088408543601CC4B2082CD8DB2846C5
:1013300070BD10B50446FFF7C0FF40212448FFF7F9
:1013400080F944F25060FFF76CFF40212048FFF71E
:1013500076F91E20FFF765FFFFF7A3FF40211C4829
:10136000FFF753F980BB00BF40211948FFF74DF943
:101370000028F9D000BF40211548FFF746F90128A1
:10138000F9D0FFF7A9FF2070FFF7A6FF6070FFF705
:10139000A3FFA070FFF7A0FFE070FFF79DFF207193
:1013A000FFF78BFF40210A48FFF749F92078617861
:1013B0000844A1780844E17808442179884201D1A1
:1013C000012010BD0020FCE7FFE70020F9E7000046
:1013D00000180140F0B503460D4616460027294681
:1013E0000A2E03D0002008702846F0BD33B9302003
:1013F00001F8010B002008702846F6E7002B03DAFD
:101400002D2001F8010B5B4242F210720DE093FBBC
:10141000F2F404B937B104F1300001F8010B04FB18
:10142000123301270A2092FBF0F2002AEFDC0020A1
:1014300008702846D9E70FB470B586B006460CA8E8
:10144000019073E00B9800785C281CD10B98401C2D
:101450000B9000786E2809D072280FD10D213046EC
:10146000FFF79CFC0B98401C0B900BE00A213046C8
:10147000FFF794FC0B98401C0B9003E00B98401C6A
:101480000B9000BF4BE00B980078252840D10B98BB
:10149000401C0B900078642818D0732833D1019831
:1014A00010C801900BE021783046FFF777FC00BFB1
:1014B00080213046FFF7E0FC0028F9D0641C20783A
:1014C0000028F0D10B98401C0B9020E0019820C818
:1014D00001900A2202A92846FFF77CFF02AC0BE02C
:1014E00021783046FFF75AFC00BF80213046FFF7D5
:1014F000C3FC0028F9D0641C20780028F0D10B9898
:10150000401C0B9003E00B98401C0B9000BF06E0C2
:101510000B9810F8011B0B903046FFF73FFC00BF03
:1015200080213046FFF7A8FC0028F9D00B980078FE
:10153000002887D106B070BC5DF814FB08B54FF4E5
:10154000A060FEF701FF27208DF8000000208DF835
:1015500001008DF8020001208DF803006846FEF7B7
:10156000F8FE08BD00B585B001218804FFF783FAB5
:1015700001210820FFF772FA4FF48060ADF81000E7
:1015800018208DF8130003208DF8120004A9F748E5
:10159000FEF7A8FF4FF40060ADF8100004208DF8AE
:1015A000130004A9F148FEF79DFF4FF4E1300090CD
:1015B0000020ADF80400ADF80600ADF80800ADF865
:1015C0000C000C20ADF80A006946E948FFF7EDFA77
:1015D000012240F22551E648FFF77FFB012240F24D
:1015E0002441E348FFF779FBFFF7A8FF0121E0481A
:1015F000FFF767FB05B000BD08B501210820FFF724
:101600002DFA4FF48070ADF8000010208DF8030023
:1016100003208DF802006946D448FEF763FF0121DC
:101620000820FFF71BFA4FF40070ADF80000694680
:10163000CE48FEF757FF08BD10B5FFF7DDFFFFF7F7
:1016400091FF4FF40071C948FEF7F9FF4FF4807124
:10165000C648FEF7F6FF10BD10B54FF40071C34841
:10166000FEF7EFFFC348FFF7DCFD4FF40071BF4802
:10167000FEF7E5FF10BD2DE9F04106460C46154684
:101680001F46BD48B0F800046FF30E00BA49A1F838
:1016900000043246B9A1B648FFF7CDFE1CB915B912
:1016A0000120BDE8F0814FF47A7107FB01F0FFF7EC
:1016B000B8FD0020B049B1F80014C1F30E01AE4AE4
:1016C00050541146AFA000F017FDB4B1ADB12146A2
:1016D000A94800F0ADFC08B1012000E0002040B9AD
:1016E0002946A54800F0A4FC08B1012000E0002034
:1016F00008B10120D5E70020D3E744B121469E4838
:1017000000F096FC08B10120CBE70020C9E729468C
:10171000994800F08DFC08B10120C2E70020C0E725
:1017200010B500244FF400719048FEF788FF9648EA
:10173000FFF777FD0CE04FF4FA73002293A194A019
:10174000FFF799FF00B110BDFFF786FF601CC4B220
:101750000A2CF0DB00BFF6E710B5044624B1012CDB
:101760000AD0022C18D10FE040F6C41389A287A139
:101770008BA0FFF780FF10BD40F6C41385A283A1A4
:101780008AA0FFF778FFF6E740F6C41381A27FA195
:1017900089A0FFF770FFEEE70020ECE730B59FB0BF
:1017A00004460D462B46224686A101A800F0B4FC53
:1017B00041F28833002275A101A8FFF75CFF1FB03A
:1017C00030BD70B5A0B004460D4616462B462246E5
:1017D00081A102A8009600F09FFC4FF47A730022CA
:1017E0006AA102A8FFF747FF20B070BD10B586B010
:1017F00004460CB1012000E0002002467CA101A8B3
:1018000000F08AFC4FF4FA73002260A101A8FFF7F0
:1018100032FF06B010BDF0B5B9B006460F4614460B
:101820001D46642120A800F0F8FB16B1012E10D14E
:1018300007E03B4672A273A120A8009400F06CFC64
:1018400008E03B4673A26FA120A8009400F064FC5E
:1018500000E000BF00BF052D06DA20AB2A466EA1CE
:1018600002A800F059FC04E020AA70A102A800F030
:1018700053FC4FF47A6371A244A102A8FFF7FBFE68
:1018800039B0F0BD70B5BCB004460D461646FCB18B
:101890002B4601226DA11EA800F03EFC324670A12D
:1018A000684600F039FC4FF4FA73002237A11EA8F5
:1018B000FFF7E1FE50B14FF4FA73002233A16846FE
:1018C000FFF7D9FE10B101203CB070BD0020FBE74E
:1018D0002B4600225DA11EA800F01EFC4FF4FA73F7
:1018E00000222AA11EA8FFF7C6FEEDE710B54FF4AF
:1018F000FA73002225A15EA0FFF7BDFEA0B160A192
:101900001D4800F095FB08B1022010BD5FA11A48E8
:1019100000F08EFB08B10320F7E75FA1164800F046
:1019200087FB08B10420F0E70020EEE710B50024A3
:101930004FF4FA73002215A14DA0FFF79CFE00287A
:1019400012D058A10C4800F073FB10B144F0010410
:1019500001E024F0010457A1074800F069FB10B131
:1019600044F00204B0E0ADE0CCE00000000C014027
:101970000048004020A107003C04002025730D0A08
:10198000000000002573000040420F004F4B000094
:10199000415400006E6F206368616E67650000004F
:1019A00041542B43574D4F44453D310041542B4347
:1019B000574D4F44453D320041542B43574D4F4402
:1019C000453D330041542B43574A41503D22257336
:1019D000222C22257322000041542B43575341509F
:1019E0003D222573222C222573222C312C256400C4
:1019F00041542B4349504D55583D2564000000008B
:101A000054435000222573222C222573222C257347
:101A1000000000005544500041542B43495053549A
:101A20004152543D25642C257300000041542B4342
:101A3000495053544152543D25730000414C524586
:101A4000415920434F4E4E454354000041542B43CF
:101A500049505345525645523D25642C257300008C
:101A600041542B43495053544F3D2573000000000F
:101A700041542B43495053544154555300000000E6
:101A80005354415455533A320D0A000053544154B3
:101A900055533A330D0A00005354415455533A34C8
:101AA0000D0A00002B4349505354415455533A30CA
:101AB0002C0000002B4349505354415455533A31A4
:101AC0002C00000024F0020464A1684800F0B0FA81
:101AD00010B144F0040401E024F0040464A163485C
:101AE00000F0A6FA10B144F0080401E024F0080464
:101AF00063A15E4800F09CFA10B144F0100401E0CC
:101B000024F01004204610BD2DE9F04105460F4693
:101B10004FF4FA730022AFF28C115DA0FFF7ABFD1A
:101B20005EA1524800F084FA06460EB1B61D02E0EE
:101B30000020BDE8F081002409E0305D2855285DD3
:101B4000222802D10020285503E0601CC4B2BC4208
:101B5000F3DB00BF0120ECE710B54FF4FA7300226D
:101B6000AFF2D8114FA0FFF786FD08B9002010BDD5
:101B70004FF4FA734FA2AFF2EC114FA0FFF77BFDC9
:101B8000F5E710B54F48FFF74CFB4FA14F48FFF763
:101B900052FC4F48FFF745FB10BD2DE9F04186B0E0
:101BA00007460C4615461E464FF0000847B1224630
:101BB000AFF230214548FFF73EFC4FF001081CE032
:101BC000052E06DAAB1C324642A101A800F0A4FAA9
:101BD00004E0AA1C44A101A800F09EFA4FF47A7315
:101BE000002245A101A8FFF746FD4FF47A730022B9
:101BF00042A12046FFF73FFD8046404606B0BDE8C3
:101C0000F08170B5044600251848B0F800046FF361
:101C10000E001649A1F800040846B0F8000420F4AC
:101C20000040A1F8000400BF1048B0F80004C00B49
:101C30000028F9D000200D49B1F80014C1F30E01BD
:101C40000A4A50540CB1154605E02EA1074800F091
:101C5000EFF900B1054D284670BD00002B434950F7
:101C60005354415455533A322C0000003C04002098
:101C70002B4349505354415455533A332C000000E0
:101C80002B4349505354415455533A342C000000CF
:101C900041542B43494653520000000041504950E3
:101CA0002C22000041542B4349504D4F44453D31B7
:101CB000000000003E00000041542B4349505345B2
:101CC0004E44000040420F002B2B2B0000480040E8
:101CD00020A1070041542B43495053454E443D2514
:101CE000642C25640000000041542B4349505345A7
:101CF0004E443D25640000003E20000053454E4404
:101D0000204F4B002B495044000000002DE9F047C4
:101D1000ADF5CA6D04460D469046994640F2DC5139
:101D20001DA800F07AF94FF0000A642104A800F021
:101D300074F900260027002003904B4642463DA13F
:101D400004A800F0E9F904A800F084F91FFA80FA69
:101D500004A82B4622463A49CDE900A01DA800F070
:101D6000DBF9FFF7C3FD032845D136A000F0C4F925
:101D7000FFF7F2FE052300221DA90120FFF70DFF4A
:101D80003548FFF74EFA35A1364800F051F90646BE
:101D90000EB1012000E00020002823D027A130460A
:101DA00000F046F907460FB1012000E00020C8B15D
:101DB0002DA1304600F056F907462CA1002000F076
:101DC00051F907463A462AA103A800F0A5F99DF863
:101DD0000C00302803D127A000F08EF902E02BA0E0
:101DE00000F08AF9FFF7CDFEC82300222EA12FA014
:101DF000FFF741FC1AE0FFF7C4FEC82300222AA126
:101E00002AA0FFF738FC2DA000F076F900BF30A122
:101E100032A0FFF7C3FC0028F9D000BF052330A291
:101E200030A10020FFF7F7FC0028F7D00DF5CA6DB0
:101E3000BDE8F0877B222573223A25737D000000E0
:101E4000AC2400080D0AB7A2CBCDCAFDBEDD2E2EF4
:101E50002E2E2E2E0D0A000020A107006572726E34
:101E60006F0000003C0400203A0000002C0000003D
:101E7000257300000D0A4F6E654E4554BDD3CAD57B
:101E8000B5BDCAFDBEDD210D0A0000000D0A4F6E72
:101E9000654E4554C3BBD3D0BDD3CAD5B5BDCAFD6D
:101EA000BEDD210D0A0000004F4B000041542B43C2
:101EB00049504D4F44453D3000000000D6D8D0C2B7
:101EC000C1ACBDD3A1A3A1A3A1A3A1A30000000005
:101ED000313233343536373800000000616161003B
:101EE000383000003138332E3233302E34302E3338
:101EF0003300000010B526A000F0FEF8FFF79CFBB1
:101F00004FF480712B48FEF79AFBFFF709FC002085
:101F1000FFF722FC0020FFF769FC00BF26A129A0E3
:101F2000FFF73CFC0028F9D000BF052326A227A11B
:101F30000020FFF770FC0028F7D028A000F0DCF8A4
:101F400010BD10B52BA000F0D7F8FFF775FB4FF4CC
:101F500080711848FEF773FBFFF7E2FB0020FFF7E4
:101F6000FBFB00BF14A117A0FFF718FC0028F9D055
:101F70000020FFF73BFC00BF052313A213A10020A4
:101F8000FFF749FC0028F7D0FFF7E6FD10BD000081
:101F90000D0AC5E4D6C345535038323636D3EB4F1D
:101FA0004E454E4554C1ACBDD3202E2E2E2E2E2E86
:101FB0000D0A0000000C0140313233343536373819
:101FC0000000000061616100383000003138332EBC
:101FD0003233302E34302E33330000000D0AC5E486
:101FE000D6C3204553503832363620CDEAB1CF0D16
:101FF0000A00000045535038323636C5E4D6C3D601
:10200000D02E2E2E2E2E2E2E0D0A0000D2B201E042
:1020100000F8012B491EFBD270470022F6E710B5ED
:1020200013460A4604461946FFF7F0FF204610BD46
:1020300030B505462A460B4612F8010B13F8014B42
:1020400008B1A042F8D01CB1002802D06D1CF1E705
:10205000284630BD421C10F8011B0029FBD1801A14
:102060007047000070B50F4D00B92868002412E0D9
:102070000A4602E09E4203D0521C1378002BF9D18D
:10208000DAB2224305D02BB124B1002100F8011BA4
:1020900004E00446401C0678002EE9D12860204662
:1020A00070BD00003400002030B50B460146002012
:1020B0002022012409E021FA02F59D4205D303FA0A
:1020C00002F5491B04FA02F52844151EA2F101028B
:1020D000F1DC30BD064C074D06E0E06840F001033E
:1020E00094E8070098471034AC42F6D3FEF724F882
:1020F00018250008382500080FB4054B10B503A9B2
:10210000044A029800F02CF810BC5DF814FB0000A3
:1021100075110008380000200FB4084B10B504A951
:1021200002AA039800F01CF8044602A9002000F05F
:10213000B8F9204610BC5DF814FB0000A324000889
:1021400002E008C8121F08C1002AFAD17047704780
:10215000002001E001C1121F002AFBD170470000DE
:102160002DE9FF4F8BB088460546002606E025285E
:102170000BD0DDE90D1290476D1C761C28780028E5
:10218000F5D10FB03046BDE8F08F0024A146A2463D
:102190000122AE4900E0044315F8013F203B02FA5A
:1021A00003F00842F7D128782A2810D06FF02F02C8
:1021B0002878A0F13001092915D809EB890102EB33
:1021C000410144F0020400EB01096D1CF0E758F8EE
:1021D000041B5FEA010903D544F40054C9F1000966
:1021E00044F002046D1C28782E2817D115F8010F31
:1021F00044F004042A280ED06FF02F022878A0F1B2
:10220000300109290AD80AEB8A0102EB410100EBEF
:10221000010A6D1CF2E758F804AB6D1C28786C2895
:102220000FD006DC4C2817D068280DD06A2814D1AE
:1022300004E0742810D07A280FD10DE044F4001483
:102240000AE044F4801401E044F4401469788142C7
:1022500002D104F580146D1C6D1C2878692865D0A6
:1022600006DC00288DD0632827D0642806D15DE0E5
:102270006E2808D073282AD0752877D0DDE90D1292
:102280009047761CE0E0C4F30250022809D00328EE
:102290000DD0D8F8001004280DD00E6008F1040805
:1022A000D2E0D8F80010F217C1E90062F6E7D8F8DA
:1022B00000100E80F2E70E70F0E718F8041B8DF89E
:1022C000001000208DF80100EB46012003E058F8D3
:1022D00004BB4FF0FF3061074FF0000701D40AE064
:1022E0007F1C57450DDA8742FADB1BF807100029DF
:1022F000F6D106E07F1C8742FCDB1BF807100029A3
:10230000F8D1DDE90D23A9EB07008146214600F055
:10231000B1F83044C61904E0DDE90D121BF8010BD9
:1023200090477F1EF8D22146484688E058F8040BB3
:10233000C4F302514FF00A0B032900D100B2042963
:1023400000D140B2002802DA40422D2102E02105EE
:1023500005D52B218DF82410012104E006E0E107CA
:1023600010D02021F6E708AF089113E058F8040BCD
:10237000C4F302514FF00A0B032900D180B20429A3
:1023800000D1C0B20021EEE75946FFF78DFE303193
:1023900007F8011D0028F7D1ADEB070000F1200B75
:1023A000600702D524F4803401E04FF0010ADA45D9
:1023B00002DDAAEB0B0000E00020824600EB0B01DF
:1023C00008980144A9EB01000A90E00306D4DDE976
:1023D0000D2321460A9800F04DF806444FF00009FD
:1023E00008E009A911F80900DDE90D12904709F18B
:1023F0000109761C08998945F3DBE0030CD5DDE97A
:102400000D2321460A9800F035F8064404E0DDE982
:102410000D1230209047761CBAF10001AAF1010A92
:10242000F5DC05E0DDE90D1217F8010B9047761C8D
:10243000BBF10001ABF1010BF4DC0A982146DDE9A8
:102440000D2300F005F806446D1C97E609280100ED
:102450002DE9F041044600251E461746880404D4A1
:1024600005E039462020B0476D1C641EF9D528468A
:10247000BDE8F0812DE9F041044600251E46904656
:10248000C80301D5302700E02027880404D505E0E3
:1024900041463846B0476D1C641EF9D52846BDE854
:1024A000F0810A68531C0B6010707047504F5354F2
:1024B000202F646576696365732F25732F646174BB
:1024C00061706F696E74733F747970653D33204835
:1024D0005454502F312E310D0A6170692D6B65797E
:1024E0003A2025730D0A486F73743A206170692E83
:1024F0006865636C6F7564732E636F6D0D0A436F4F
:102500006E74656E742D4C656E6774683A20256430
:102510000D0A0D0A25730000382500080000002070
:102520003C00000040210008742500083C00002009
:10253000040C00005021000800A24A040000000022
:102540000000000001020304060708090000000063
:102550000102030401020304060708090204060835
:10256000000000000000000000000000000000006B
:042570000000000067
:0400000508000131BD
:00000001FF
